{
  "contractName": "JPToken",
  "abi": [
    {
      "inputs": [],
      "stateMutability": "nonpayable",
      "type": "constructor"
    },
    {
      "anonymous": false,
      "inputs": [
        {
          "indexed": false,
          "internalType": "address",
          "name": "from",
          "type": "address"
        },
        {
          "indexed": false,
          "internalType": "address",
          "name": "to",
          "type": "address"
        },
        {
          "indexed": false,
          "internalType": "uint256",
          "name": "value",
          "type": "uint256"
        }
      ],
      "name": "Transfer",
      "type": "event"
    },
    {
      "inputs": [],
      "name": "decimals",
      "outputs": [
        {
          "internalType": "uint8",
          "name": "",
          "type": "uint8"
        }
      ],
      "stateMutability": "view",
      "type": "function",
      "constant": true
    },
    {
      "inputs": [],
      "name": "name",
      "outputs": [
        {
          "internalType": "string",
          "name": "",
          "type": "string"
        }
      ],
      "stateMutability": "view",
      "type": "function",
      "constant": true
    },
    {
      "inputs": [],
      "name": "symbol",
      "outputs": [
        {
          "internalType": "string",
          "name": "",
          "type": "string"
        }
      ],
      "stateMutability": "view",
      "type": "function",
      "constant": true
    },
    {
      "inputs": [],
      "name": "totalSupply",
      "outputs": [
        {
          "internalType": "uint256",
          "name": "",
          "type": "uint256"
        }
      ],
      "stateMutability": "view",
      "type": "function",
      "constant": true
    },
    {
      "inputs": [],
      "name": "showStockJPT",
      "outputs": [
        {
          "internalType": "uint256",
          "name": "",
          "type": "uint256"
        }
      ],
      "stateMutability": "view",
      "type": "function",
      "constant": true
    },
    {
      "inputs": [
        {
          "internalType": "address",
          "name": "tokenOwner",
          "type": "address"
        }
      ],
      "name": "balanceOf",
      "outputs": [
        {
          "internalType": "uint256",
          "name": "",
          "type": "uint256"
        }
      ],
      "stateMutability": "view",
      "type": "function",
      "constant": true
    },
    {
      "inputs": [],
      "name": "buy10",
      "outputs": [],
      "stateMutability": "payable",
      "type": "function",
      "payable": true
    },
    {
      "inputs": [],
      "name": "buy20",
      "outputs": [],
      "stateMutability": "payable",
      "type": "function",
      "payable": true
    },
    {
      "inputs": [],
      "name": "sell10",
      "outputs": [],
      "stateMutability": "nonpayable",
      "type": "function"
    },
    {
      "inputs": [],
      "name": "restockEth",
      "outputs": [],
      "stateMutability": "payable",
      "type": "function",
      "payable": true
    },
    {
      "inputs": [],
      "name": "contractBalance",
      "outputs": [
        {
          "internalType": "uint256",
          "name": "",
          "type": "uint256"
        }
      ],
      "stateMutability": "view",
      "type": "function",
      "constant": true
    },
    {
      "inputs": [],
      "name": "toWithdraw",
      "outputs": [],
      "stateMutability": "payable",
      "type": "function",
      "payable": true
    }
  ],
  "bytecode": "0x608060405234801561001057600080fd5b50600063b2d05e009050806000819055508060018190555033600260006101000a81548173ffffffffffffffffffffffffffffffffffffffff021916908373ffffffffffffffffffffffffffffffffffffffff16021790555060015460046000600260009054906101000a900473ffffffffffffffffffffffffffffffffffffffff1673ffffffffffffffffffffffffffffffffffffffff1673ffffffffffffffffffffffffffffffffffffffff168152602001908152602001600020819055506003600260009054906101000a900473ffffffffffffffffffffffffffffffffffffffff169080600181540180825580915050600190039060005260206000200160009091909190916101000a81548173ffffffffffffffffffffffffffffffffffffffff021916908373ffffffffffffffffffffffffffffffffffffffff16021790555050611171806101666000396000f3fe6080604052600436106100a75760003560e01c8063347f233611610064578063347f23361461014b57806341affa381461015557806370a08231146101805780638b7afe2e146101bd57806395d89b41146101e8578063ccb82bae14610213576100a7565b806304b1af75146100ac57806306fdde03146100b65780630cd9f271146100e157806318160ddd146100eb57806319ceb00314610116578063313ce56714610120575b600080fd5b6100b461022a565b005b3480156100c257600080fd5b506100cb6102f6565b6040516100d89190610b11565b60405180910390f35b6100e961032f565b005b3480156100f757600080fd5b506101006103fb565b60405161010d9190610b4c565b60405180910390f35b61011e610404565b005b34801561012c57600080fd5b506101356104d9565b6040516101429190610b83565b60405180910390f35b6101536104de565b005b34801561016157600080fd5b5061016a6105f2565b6040516101779190610b4c565b60405180910390f35b34801561018c57600080fd5b506101a760048036038101906101a29190610c01565b6105fc565b6040516101b49190610b4c565b60405180910390f35b3480156101c957600080fd5b506101d2610645565b6040516101df9190610b4c565b60405180910390f35b3480156101f457600080fd5b506101fd61064d565b60405161020a9190610b11565b60405180910390f35b34801561021f57600080fd5b50610228610686565b005b671bc16d674ec80000341461023e57600080fd5b601461026b600260009054906101000a900473ffffffffffffffffffffffffffffffffffffffff166105fc565b10156102ac576040517f08c379a00000000000000000000000000000000000000000000000000000000081526004016102a390610ca0565b60405180910390fd5b6102b73360146107a8565b507fddf252ad1be2c89b69c2b068fc378daa952ba7f163c4a11628f55a4df523b3ef303360146040516102ec93929190610d14565b60405180910390a1565b6040518060400160405280600781526020017f4a50546f6b656e0000000000000000000000000000000000000000000000000081525081565b670de0b6b3a7640000341461034357600080fd5b600a610370600260009054906101000a900473ffffffffffffffffffffffffffffffffffffffff166105fc565b10156103b1576040517f08c379a00000000000000000000000000000000000000000000000000000000081526004016103a890610ca0565b60405180910390fd5b6103bc33600a6107a8565b507fddf252ad1be2c89b69c2b068fc378daa952ba7f163c4a11628f55a4df523b3ef3033600a6040516103f193929190610d86565b60405180910390a1565b60008054905090565b600260009054906101000a900473ffffffffffffffffffffffffffffffffffffffff1673ffffffffffffffffffffffffffffffffffffffff163373ffffffffffffffffffffffffffffffffffffffff1614610494576040517f08c379a000000000000000000000000000000000000000000000000000000000815260040161048b90610e09565b60405180910390fd5b600034116104d7576040517f08c379a00000000000000000000000000000000000000000000000000000000081526004016104ce90610e9b565b60405180910390fd5b565b600381565b600260009054906101000a900473ffffffffffffffffffffffffffffffffffffffff1673ffffffffffffffffffffffffffffffffffffffff163373ffffffffffffffffffffffffffffffffffffffff161461056e576040517f08c379a000000000000000000000000000000000000000000000000000000000815260040161056590610e09565b60405180910390fd5b3373ffffffffffffffffffffffffffffffffffffffff166108fc479081150290604051600060405180830381858888f193505050501580156105b4573d6000803e3d6000fd5b507fddf252ad1be2c89b69c2b068fc378daa952ba7f163c4a11628f55a4df523b3ef3033476040516105e893929190610ebb565b60405180910390a1565b6000600154905090565b6000600460008373ffffffffffffffffffffffffffffffffffffffff1673ffffffffffffffffffffffffffffffffffffffff168152602001908152602001600020549050919050565b600047905090565b6040518060400160405280600381526020017f4a544b000000000000000000000000000000000000000000000000000000000081525081565b6000670c7d713b49da00009050600a61069e336105fc565b10156106df576040517f08c379a00000000000000000000000000000000000000000000000000000000081526004016106d690610f64565b60405180910390fd5b80471015610722576040517f08c379a000000000000000000000000000000000000000000000000000000000815260040161071990610ff6565b60405180910390fd5b3373ffffffffffffffffffffffffffffffffffffffff166108fc829081150290604051600060405180830381858888f19350505050158015610768573d6000803e3d6000fd5b507fddf252ad1be2c89b69c2b068fc378daa952ba7f163c4a11628f55a4df523b3ef3330600a60405161079d93929190610d86565b60405180910390a150565b600060046000600260009054906101000a900473ffffffffffffffffffffffffffffffffffffffff1673ffffffffffffffffffffffffffffffffffffffff1673ffffffffffffffffffffffffffffffffffffffff1681526020019081526020016000205482111561084e576040517f08c379a000000000000000000000000000000000000000000000000000000000815260040161084590611062565b60405180910390fd5b8160046000600260009054906101000a900473ffffffffffffffffffffffffffffffffffffffff1673ffffffffffffffffffffffffffffffffffffffff1673ffffffffffffffffffffffffffffffffffffffff168152602001908152602001600020546108bb91906110b1565b60046000600260009054906101000a900473ffffffffffffffffffffffffffffffffffffffff1673ffffffffffffffffffffffffffffffffffffffff1673ffffffffffffffffffffffffffffffffffffffff1681526020019081526020016000208190555081600460008573ffffffffffffffffffffffffffffffffffffffff1673ffffffffffffffffffffffffffffffffffffffff1681526020019081526020016000205461096b91906110e5565b600460008573ffffffffffffffffffffffffffffffffffffffff1673ffffffffffffffffffffffffffffffffffffffff168152602001908152602001600020819055506003839080600181540180825580915050600190039060005260206000200160009091909190916101000a81548173ffffffffffffffffffffffffffffffffffffffff021916908373ffffffffffffffffffffffffffffffffffffffff1602179055507fddf252ad1be2c89b69c2b068fc378daa952ba7f163c4a11628f55a4df523b3ef600260009054906101000a900473ffffffffffffffffffffffffffffffffffffffff168484604051610a6693929190610ebb565b60405180910390a16001905092915050565b600081519050919050565b600082825260208201905092915050565b60005b83811015610ab2578082015181840152602081019050610a97565b83811115610ac1576000848401525b50505050565b6000601f19601f8301169050919050565b6000610ae382610a78565b610aed8185610a83565b9350610afd818560208601610a94565b610b0681610ac7565b840191505092915050565b60006020820190508181036000830152610b2b8184610ad8565b905092915050565b6000819050919050565b610b4681610b33565b82525050565b6000602082019050610b616000830184610b3d565b92915050565b600060ff82169050919050565b610b7d81610b67565b82525050565b6000602082019050610b986000830184610b74565b92915050565b600080fd5b600073ffffffffffffffffffffffffffffffffffffffff82169050919050565b6000610bce82610ba3565b9050919050565b610bde81610bc3565b8114610be957600080fd5b50565b600081359050610bfb81610bd5565b92915050565b600060208284031215610c1757610c16610b9e565b5b6000610c2584828501610bec565b91505092915050565b7f4e6f7420656e6f756768204a546f6b656e20696e2073746f636b20746f20667560008201527f6c66696c6c20707572636861736520726571756573742e000000000000000000602082015250565b6000610c8a603783610a83565b9150610c9582610c2e565b604082019050919050565b60006020820190508181036000830152610cb981610c7d565b9050919050565b610cc981610bc3565b82525050565b6000819050919050565b6000819050919050565b6000610cfe610cf9610cf484610ccf565b610cd9565b610b33565b9050919050565b610d0e81610ce3565b82525050565b6000606082019050610d296000830186610cc0565b610d366020830185610cc0565b610d436040830184610d05565b949350505050565b6000819050919050565b6000610d70610d6b610d6684610d4b565b610cd9565b610b33565b9050919050565b610d8081610d55565b82525050565b6000606082019050610d9b6000830186610cc0565b610da86020830185610cc0565b610db56040830184610d77565b949350505050565b7f53656e646572206973206e6f74206f776e657221000000000000000000000000600082015250565b6000610df3601483610a83565b9150610dfe82610dbd565b602082019050919050565b60006020820190508181036000830152610e2281610de6565b9050919050565b7f596f752063616e277420726573746f636b2030206f72206c657373204574686560008201527f72732e0000000000000000000000000000000000000000000000000000000000602082015250565b6000610e85602383610a83565b9150610e9082610e29565b604082019050919050565b60006020820190508181036000830152610eb481610e78565b9050919050565b6000606082019050610ed06000830186610cc0565b610edd6020830185610cc0565b610eea6040830184610b3d565b949350505050565b7f4e6f7420656e6f756768204a546f6b656e20746f20747261646520666f72206560008201527f746865722e000000000000000000000000000000000000000000000000000000602082015250565b6000610f4e602583610a83565b9150610f5982610ef2565b604082019050919050565b60006020820190508181036000830152610f7d81610f41565b9050919050565b7f4e6f7420656e6f7567682065746865727320746f2070617920666f722074686960008201527f73207472616e73616374696f6e2e000000000000000000000000000000000000602082015250565b6000610fe0602e83610a83565b9150610feb82610f84565b604082019050919050565b6000602082019050818103600083015261100f81610fd3565b9050919050565b7f496e73756666696369656e742042616c616e636520746f205472616e73666572600082015250565b600061104c602083610a83565b915061105782611016565b602082019050919050565b6000602082019050818103600083015261107b8161103f565b9050919050565b7f4e487b7100000000000000000000000000000000000000000000000000000000600052601160045260246000fd5b60006110bc82610b33565b91506110c783610b33565b9250828210156110da576110d9611082565b5b828203905092915050565b60006110f082610b33565b91506110fb83610b33565b9250827fffffffffffffffffffffffffffffffffffffffffffffffffffffffffffffffff038211156111305761112f611082565b5b82820190509291505056fea2646970667358221220b6040f4bc696ce0ed12001de73c2d80c95b00b87f15b004fe4831aef664cc44564736f6c634300080e0033",
  "immutableReferences": {},
  "source": "// SPDX-License-Identifier: MIT\npragma solidity >=0.4.22 <0.9.0;\n\ninterface IERC20 {\n    function totalSupply() external view returns (uint256);\n    function balanceOf(address account) external view returns (uint256);\n    event Transfer(address from, address to, uint256 value);\n    \n}\n    contract JPToken is IERC20 {\n\n\n    //Properties\n    string public constant name = \"JPToken\";\n    string public constant symbol = \"JTK\";\n    uint8 public constant decimals = 3; //Default dos exemplos  sempre 18\n    uint256 private totalsupply;\n    uint256 private stockJPToken;\n    address private owner;\n    address[] private tokenOwners;\n\n    mapping(address => uint256) private addressToBalance;\n\n    modifier isOwner() {\n        require(address(msg.sender) == owner, \"Sender is not owner!\");\n        _;\n    }\n\n    //Constructor\n    constructor() {\n        uint256 total = 3000000000;\n        totalsupply = total;\n        stockJPToken = total;\n        owner = msg.sender;\n        addressToBalance[owner] = stockJPToken;\n        tokenOwners.push(owner);\n    }\n\n    //Public Functions\n    function totalSupply() public view override returns (uint256) {\n        return totalsupply;\n    }\n\n    function showStockJPT() public view returns(uint256)  {\n        return stockJPToken;\n    }\n\n    function balanceOf(address tokenOwner) public view override returns (uint256){\n        return addressToBalance[tokenOwner];\n    }\n\n\n    function transfer(address receiver, uint256 quantity) private returns (bool){\n        require(quantity <= addressToBalance[owner],\"Insufficient Balance to Transfer\");\n        addressToBalance[owner] = addressToBalance[owner] - quantity;\n        addressToBalance[receiver] = addressToBalance[receiver] + quantity;\n        tokenOwners.push(receiver);\n        emit Transfer(owner, receiver, quantity);\n        return true;\n    }\n\n    function buy10() public payable{\n        require(msg.value == 1 ether);\n        require(balanceOf(owner) >= 10, \"Not enough JToken in stock to fulfill purchase request.\");\n        transfer(msg.sender, 10);\n        emit Transfer(address(this), msg.sender, 10);\n    }\n\n    function buy20() public payable{\n        require(msg.value == 2 ether);\n        require(balanceOf(owner) >= 20, \"Not enough JToken in stock to fulfill purchase request.\");\n        transfer(msg.sender, 20);\n        emit Transfer(address(this), msg.sender, 20);\n    }\n    \n    \n    function sell10() public{\n        uint256 valueToPay;\n        valueToPay = 900000000000000000;\n        require(balanceOf(msg.sender) >= 10, \"Not enough JToken to trade for ether.\");\n        require(address(this).balance >= valueToPay, \"Not enough ethers to pay for this transaction.\");\n        payable(msg.sender).transfer(valueToPay);\n        emit Transfer(msg.sender, address(this), 10);\n    }\n\n    function restockEth() public payable isOwner{\n        require(msg.value > 0,\"You can't restock 0 or less Ethers.\");\n    }\n\n    function contractBalance () public view returns(uint256) {\n        return address(this).balance;\n    }\n\n    function toWithdraw() public payable isOwner{\n        payable(msg.sender).transfer(address(this).balance);\n        emit Transfer(address(this), msg.sender, address(this).balance);\n    }\n}\n//const instance = await JPToken.deployed()\n//instance.buy10({from:accounts[1], value: \"1000000000000000000\"})\n//instance.contractBalance().then(b => { return b.toString()})",
  "sourcePath": "/home/jp/rea de Trabalho/UdemySolidity+React/Vending Machine+React/contracts/JPToken.sol",
  "compiler": {
    "name": "solc",
    "version": "0.8.14+commit.80d49f37.Emscripten.clang"
  },
  "schemaVersion": "3.4.7",
  "updatedAt": "2022-07-09T12:28:53.570Z",
  "networkType": "ethereum",
  "devdoc": {
    "kind": "dev",
    "methods": {},
    "version": 1
  },
  "userdoc": {
    "kind": "user",
    "methods": {},
    "version": 1
  }
}